{
  "contractName": "DNS_Storage",
  "abi": [
    {
      "inputs": [],
      "stateMutability": "nonpayable",
      "type": "constructor"
    },
    {
      "inputs": [
        {
          "internalType": "address",
          "name": "",
          "type": "address"
        }
      ],
      "name": "assignation",
      "outputs": [
        {
          "internalType": "string",
          "name": "",
          "type": "string"
        }
      ],
      "stateMutability": "view",
      "type": "function",
      "constant": true
    },
    {
      "inputs": [
        {
          "internalType": "bytes32",
          "name": "",
          "type": "bytes32"
        }
      ],
      "name": "name_assignation",
      "outputs": [
        {
          "internalType": "address",
          "name": "",
          "type": "address"
        }
      ],
      "stateMutability": "view",
      "type": "function",
      "constant": true
    },
    {
      "inputs": [
        {
          "internalType": "bytes32",
          "name": "",
          "type": "bytes32"
        }
      ],
      "name": "resolution",
      "outputs": [
        {
          "internalType": "address",
          "name": "owner",
          "type": "address"
        },
        {
          "internalType": "address",
          "name": "addr",
          "type": "address"
        },
        {
          "internalType": "bool",
          "name": "hideOwner",
          "type": "bool"
        },
        {
          "internalType": "bytes32",
          "name": "signature",
          "type": "bytes32"
        }
      ],
      "stateMutability": "view",
      "type": "function",
      "constant": true
    },
    {
      "inputs": [
        {
          "internalType": "string",
          "name": "_name",
          "type": "string"
        }
      ],
      "name": "name",
      "outputs": [
        {
          "internalType": "bytes32",
          "name": "_hash",
          "type": "bytes32"
        }
      ],
      "stateMutability": "pure",
      "type": "function",
      "constant": true
    },
    {
      "inputs": [
        {
          "internalType": "address",
          "name": "_from",
          "type": "address"
        },
        {
          "internalType": "string",
          "name": "_name",
          "type": "string"
        }
      ],
      "name": "registerName",
      "outputs": [
        {
          "internalType": "bool",
          "name": "_ok",
          "type": "bool"
        }
      ],
      "stateMutability": "nonpayable",
      "type": "function"
    },
    {
      "inputs": [
        {
          "internalType": "string",
          "name": "_name",
          "type": "string"
        },
        {
          "internalType": "address",
          "name": "_addr",
          "type": "address"
        }
      ],
      "name": "updateName",
      "outputs": [],
      "stateMutability": "nonpayable",
      "type": "function"
    },
    {
      "inputs": [
        {
          "internalType": "string",
          "name": "_name",
          "type": "string"
        }
      ],
      "name": "getContent",
      "outputs": [
        {
          "internalType": "address",
          "name": "_owner",
          "type": "address"
        },
        {
          "internalType": "address",
          "name": "_associatedAddress",
          "type": "address"
        },
        {
          "internalType": "bytes32",
          "name": "_signature",
          "type": "bytes32"
        }
      ],
      "stateMutability": "view",
      "type": "function",
      "constant": true
    },
    {
      "inputs": [
        {
          "internalType": "string",
          "name": "_name",
          "type": "string"
        }
      ],
      "name": "ownerOf",
      "outputs": [
        {
          "internalType": "address",
          "name": "_owner",
          "type": "address"
        }
      ],
      "stateMutability": "view",
      "type": "function",
      "constant": true
    },
    {
      "inputs": [
        {
          "internalType": "string",
          "name": "_name",
          "type": "string"
        },
        {
          "internalType": "address",
          "name": "_destination",
          "type": "address"
        }
      ],
      "name": "assignName",
      "outputs": [],
      "stateMutability": "nonpayable",
      "type": "function"
    },
    {
      "inputs": [
        {
          "internalType": "address",
          "name": "_assignee",
          "type": "address"
        }
      ],
      "name": "getName",
      "outputs": [
        {
          "internalType": "string",
          "name": "_name",
          "type": "string"
        }
      ],
      "stateMutability": "view",
      "type": "function",
      "constant": true
    },
    {
      "inputs": [
        {
          "internalType": "string",
          "name": "_name",
          "type": "string"
        }
      ],
      "name": "getAddressUsingNameHash",
      "outputs": [
        {
          "internalType": "address",
          "name": "_assignee",
          "type": "address"
        }
      ],
      "stateMutability": "view",
      "type": "function",
      "constant": true
    }
  ],
  "bytecode": "0x60806040526040518060400160405280600981526020017f444e535f4f776e657200000000000000000000000000000000000000000000008152506000908051906020019062000051929190620001a7565b503480156200005f57600080fd5b5060006002600060405160200162000078919062000366565b60405160208183030381529060405260405162000096919062000402565b602060405180830381855afa158015620000b4573d6000803e3d6000fd5b5050506040513d601f19601f82011682018060405250810190620000d991906200045b565b9050336001600083815260200190815260200160002060000160006101000a81548173ffffffffffffffffffffffffffffffffffffffff021916908373ffffffffffffffffffffffffffffffffffffffff160217905550336001600083815260200190815260200160002060010160006101000a81548173ffffffffffffffffffffffffffffffffffffffff021916908373ffffffffffffffffffffffffffffffffffffffff160217905550806001600083815260200190815260200160002060020181905550506200048d565b828054620001b59062000286565b90600052602060002090601f016020900481019282620001d9576000855562000225565b82601f10620001f457805160ff191683800117855562000225565b8280016001018555821562000225579182015b828111156200022457825182559160200191906001019062000207565b5b50905062000234919062000238565b5090565b5b808211156200025357600081600090555060010162000239565b5090565b7f4e487b7100000000000000000000000000000000000000000000000000000000600052602260045260246000fd5b600060028204905060018216806200029f57607f821691505b602082108103620002b557620002b462000257565b5b50919050565b600081905092915050565b60008190508160005260206000209050919050565b60008154620002ea8162000286565b620002f68186620002bb565b9450600182166000811462000314576001811462000326576200035d565b60ff198316865281860193506200035d565b6200033185620002c6565b60005b83811015620003555781548189015260018201915060208101905062000334565b838801955050505b50505092915050565b6000620003748284620002db565b915081905092915050565b600081519050919050565b600081905092915050565b60005b83811015620003b557808201518184015260208101905062000398565b83811115620003c5576000848401525b50505050565b6000620003d8826200037f565b620003e481856200038a565b9350620003f681856020860162000395565b80840191505092915050565b6000620004108284620003cb565b915081905092915050565b600080fd5b6000819050919050565b620004358162000420565b81146200044157600080fd5b50565b60008151905062000455816200042a565b92915050565b6000602082840312156200047457620004736200041b565b5b6000620004848482850162000444565b91505092915050565b610f57806200049d6000396000f3fe608060405234801561001057600080fd5b50600436106100a95760003560e01c80635b43bc99116100715780635b43bc991461018a5780635fd4b08a146101ba5780638c9e1f3c146101ea5780638cbb1c081461021c578063920ffa2614610238578063ee9d289914610268576100a9565b806304ae5831146100ae5780630d6e1b65146100de5780634b3a85a1146100fa5780634b9305031461012a57806358a2f9851461015a575b600080fd5b6100c860048036038101906100c391906109de565b61029b565b6040516100d59190610a4c565b60405180910390f35b6100f860048036038101906100f39190610af8565b6102ce565b005b610114600480360381019061010f9190610b58565b610337565b6040516101219190610c1e565b60405180910390f35b610144600480360381019061013f9190610c40565b6103d7565b6040516101519190610cbb565b60405180910390f35b610174600480360381019061016f9190610cd6565b6104e6565b6040516101819190610a4c565b60405180910390f35b6101a4600480360381019061019f9190610cd6565b61052d565b6040516101b19190610d32565b60405180910390f35b6101d460048036038101906101cf9190610b58565b6105a8565b6040516101e19190610c1e565b60405180910390f35b61020460048036038101906101ff9190610cd6565b610679565b60405161021393929190610d4d565b60405180910390f35b61023660048036038101906102319190610af8565b610752565b005b610252600480360381019061024d9190610cd6565b610801565b60405161025f9190610a4c565b60405180910390f35b610282600480360381019061027d91906109de565b61087e565b6040516102929493929190610d84565b60405180910390f35b60036020528060005260406000206000915054906101000a900473ffffffffffffffffffffffffffffffffffffffff1681565b60006102da848461052d565b9050816001600083815260200190815260200160002060010160006101000a81548173ffffffffffffffffffffffffffffffffffffffff021916908373ffffffffffffffffffffffffffffffffffffffff16021790555050505050565b6002602052806000526040600020600091509050805461035690610df8565b80601f016020809104026020016040519081016040528092919081815260200182805461038290610df8565b80156103cf5780601f106103a4576101008083540402835291602001916103cf565b820191906000526020600020905b8154815290600101906020018083116103b257829003601f168201915b505050505081565b6000806103e4848461052d565b9050846001600083815260200190815260200160002060000160006101000a81548173ffffffffffffffffffffffffffffffffffffffff021916908373ffffffffffffffffffffffffffffffffffffffff160217905550846001600083815260200190815260200160002060010160006101000a81548173ffffffffffffffffffffffffffffffffffffffff021916908373ffffffffffffffffffffffffffffffffffffffff16021790555060006001600083815260200190815260200160002060010160146101000a81548160ff02191690831515021790555080600160008381526020019081526020016000206002018190555060019150509392505050565b6000600360006104f6858561052d565b815260200190815260200160002060009054906101000a900473ffffffffffffffffffffffffffffffffffffffff16905092915050565b600060028383604051602001610544929190610e68565b6040516020818303038152906040526040516105609190610ec8565b602060405180830381855afa15801561057d573d6000803e3d6000fd5b5050506040513d601f19601f820116820180604052508101906105a09190610ef4565b905092915050565b6060600260008373ffffffffffffffffffffffffffffffffffffffff1673ffffffffffffffffffffffffffffffffffffffff16815260200190815260200160002080546105f490610df8565b80601f016020809104026020016040519081016040528092919081815260200182805461062090610df8565b801561066d5780601f106106425761010080835404028352916020019161066d565b820191906000526020600020905b81548152906001019060200180831161065057829003601f168201915b50505050509050919050565b600080600080610689868661052d565b905060006001600083815260200190815260200160002060000160009054906101000a900473ffffffffffffffffffffffffffffffffffffffff1690506001600083815260200190815260200160002060010160149054906101000a900460ff16156106f457600090505b806001600084815260200190815260200160002060010160009054906101000a900473ffffffffffffffffffffffffffffffffffffffff16600160008581526020019081526020016000206002015494509450945050509250925092565b8282600260008473ffffffffffffffffffffffffffffffffffffffff1673ffffffffffffffffffffffffffffffffffffffff16815260200190815260200160002091906107a09291906108fb565b5080600360006107b0868661052d565b815260200190815260200160002060006101000a81548173ffffffffffffffffffffffffffffffffffffffff021916908373ffffffffffffffffffffffffffffffffffffffff160217905550505050565b60008061080e848461052d565b90506001600082815260200190815260200160002060010160149054906101000a900460ff161561083e57600080fd5b6001600082815260200190815260200160002060000160009054906101000a900473ffffffffffffffffffffffffffffffffffffffff1691505092915050565b60016020528060005260406000206000915090508060000160009054906101000a900473ffffffffffffffffffffffffffffffffffffffff16908060010160009054906101000a900473ffffffffffffffffffffffffffffffffffffffff16908060010160149054906101000a900460ff16908060020154905084565b82805461090790610df8565b90600052602060002090601f0160209004810192826109295760008555610970565b82601f1061094257803560ff1916838001178555610970565b82800160010185558215610970579182015b8281111561096f578235825591602001919060010190610954565b5b50905061097d9190610981565b5090565b5b8082111561099a576000816000905550600101610982565b5090565b600080fd5b600080fd5b6000819050919050565b6109bb816109a8565b81146109c657600080fd5b50565b6000813590506109d8816109b2565b92915050565b6000602082840312156109f4576109f361099e565b5b6000610a02848285016109c9565b91505092915050565b600073ffffffffffffffffffffffffffffffffffffffff82169050919050565b6000610a3682610a0b565b9050919050565b610a4681610a2b565b82525050565b6000602082019050610a616000830184610a3d565b92915050565b600080fd5b600080fd5b600080fd5b60008083601f840112610a8c57610a8b610a67565b5b8235905067ffffffffffffffff811115610aa957610aa8610a6c565b5b602083019150836001820283011115610ac557610ac4610a71565b5b9250929050565b610ad581610a2b565b8114610ae057600080fd5b50565b600081359050610af281610acc565b92915050565b600080600060408486031215610b1157610b1061099e565b5b600084013567ffffffffffffffff811115610b2f57610b2e6109a3565b5b610b3b86828701610a76565b93509350506020610b4e86828701610ae3565b9150509250925092565b600060208284031215610b6e57610b6d61099e565b5b6000610b7c84828501610ae3565b91505092915050565b600081519050919050565b600082825260208201905092915050565b60005b83811015610bbf578082015181840152602081019050610ba4565b83811115610bce576000848401525b50505050565b6000601f19601f8301169050919050565b6000610bf082610b85565b610bfa8185610b90565b9350610c0a818560208601610ba1565b610c1381610bd4565b840191505092915050565b60006020820190508181036000830152610c388184610be5565b905092915050565b600080600060408486031215610c5957610c5861099e565b5b6000610c6786828701610ae3565b935050602084013567ffffffffffffffff811115610c8857610c876109a3565b5b610c9486828701610a76565b92509250509250925092565b60008115159050919050565b610cb581610ca0565b82525050565b6000602082019050610cd06000830184610cac565b92915050565b60008060208385031215610ced57610cec61099e565b5b600083013567ffffffffffffffff811115610d0b57610d0a6109a3565b5b610d1785828601610a76565b92509250509250929050565b610d2c816109a8565b82525050565b6000602082019050610d476000830184610d23565b92915050565b6000606082019050610d626000830186610a3d565b610d6f6020830185610a3d565b610d7c6040830184610d23565b949350505050565b6000608082019050610d996000830187610a3d565b610da66020830186610a3d565b610db36040830185610cac565b610dc06060830184610d23565b95945050505050565b7f4e487b7100000000000000000000000000000000000000000000000000000000600052602260045260246000fd5b60006002820490506001821680610e1057607f821691505b602082108103610e2357610e22610dc9565b5b50919050565b600081905092915050565b82818337600083830152505050565b6000610e4f8385610e29565b9350610e5c838584610e34565b82840190509392505050565b6000610e75828486610e43565b91508190509392505050565b600081519050919050565b600081905092915050565b6000610ea282610e81565b610eac8185610e8c565b9350610ebc818560208601610ba1565b80840191505092915050565b6000610ed48284610e97565b915081905092915050565b600081519050610eee816109b2565b92915050565b600060208284031215610f0a57610f0961099e565b5b6000610f1884828501610edf565b9150509291505056fea2646970667358221220dc62b1780dce7c7d12e58ea1021d2b652971410b6059955df1372943d8c2e32564736f6c634300080e0033",
  "immutableReferences": {},
  "source": "// SPDX-License-Identifier: GPL-3.0\npragma solidity >=0.4.22 <0.9.0;\n\ncontract DNS_Storage {\n    struct Resolution {\n        address owner;\n        address addr;\n        bool hideOwner;\n        bytes32 signature;\n    }\n    string private DNS_Owner = \"DNS_Owner\";\n    mapping(bytes32 => Resolution) public resolution;\n    mapping(address => string) public assignation;\n    mapping(bytes32 => address) public name_assignation;\n\n    constructor() {\n        bytes32 sig = sha256(abi.encodePacked(DNS_Owner));\n        resolution[sig].owner = msg.sender;\n        resolution[sig].addr = msg.sender;\n        resolution[sig].signature = sig;\n    }\n\n    function name(string calldata _name) public pure returns (bytes32 _hash) {\n        return sha256(abi.encodePacked(_name));\n    }\n\n    function registerName(address _from, string calldata _name)\n        public\n        returns (bool _ok)\n    {\n        bytes32 sig = name(_name);\n        resolution[sig].owner = _from;\n        resolution[sig].addr = _from;\n        resolution[sig].hideOwner = false;\n        resolution[sig].signature = sig;\n        return true;\n    }\n\n    function updateName(string calldata _name, address _addr) public {\n        bytes32 sig = name(_name);\n        resolution[sig].addr = _addr;\n    }\n\n    function getContent(string calldata _name)\n        public\n        view\n        returns (\n            address _owner,\n            address _associatedAddress,\n            bytes32 _signature\n        )\n    {\n        bytes32 sig = name(_name);\n        address temp_owner = resolution[sig].owner;\n\n        if (resolution[sig].hideOwner) {\n            temp_owner = address(0);\n        }\n        return (temp_owner, resolution[sig].addr, resolution[sig].signature);\n    }\n\n    function ownerOf(string calldata _name)\n        public\n        view\n        returns (address _owner)\n    {\n        bytes32 sig = name(_name);\n        if (resolution[sig].hideOwner) {\n            revert();\n        }\n        return resolution[sig].owner;\n    }\n\n    function assignName(string calldata _name, address _destination) public {\n        // if(name_assignation[sha256(abi.encodePacked(assignation[_destination]))] != 0x0)\n        // {\n        //     revert();\n        // }\n\n        assignation[_destination] = _name;\n        name_assignation[name(_name)] = _destination;\n    }\n\n    function getName(address _assignee)\n        public\n        view\n        returns (string memory _name)\n    {\n        return assignation[_assignee];\n    }\n\n    function getAddressUsingNameHash(string calldata _name)\n        public\n        view\n        returns (address _assignee)\n    {\n        return name_assignation[name(_name)];\n    }\n}\n",
  "sourcePath": "/Users/mehul/Procial_Internship/Sampleproj/contracts/DNS_Storage.sol",
  "compiler": {
    "name": "solc",
    "version": "0.8.14+commit.80d49f37.Emscripten.clang"
  },
  "schemaVersion": "3.4.7",
  "updatedAt": "2022-06-03T06:47:22.749Z",
  "networkType": "ethereum",
  "devdoc": {
    "kind": "dev",
    "methods": {},
    "version": 1
  },
  "userdoc": {
    "kind": "user",
    "methods": {},
    "version": 1
  }
}